{
  "abi": [
    {
      "type": "constructor",
      "inputs": [
        {
          "name": "_arbiter",
          "type": "address",
          "internalType": "address"
        }
      ],
      "stateMutability": "nonpayable"
    },
    {
      "type": "fallback",
      "stateMutability": "payable"
    },
    {
      "type": "receive",
      "stateMutability": "payable"
    },
    {
      "type": "function",
      "name": "arbiter",
      "inputs": [],
      "outputs": [
        {
          "name": "",
          "type": "address",
          "internalType": "address"
        }
      ],
      "stateMutability": "view"
    },
    {
      "type": "function",
      "name": "changeArbiter",
      "inputs": [
        {
          "name": "newArbiter",
          "type": "address",
          "internalType": "address"
        }
      ],
      "outputs": [],
      "stateMutability": "nonpayable"
    },
    {
      "type": "function",
      "name": "confirmReceipt",
      "inputs": [
        {
          "name": "escrowId",
          "type": "uint256",
          "internalType": "uint256"
        }
      ],
      "outputs": [],
      "stateMutability": "nonpayable"
    },
    {
      "type": "function",
      "name": "createEscrow",
      "inputs": [
        {
          "name": "buyer",
          "type": "address",
          "internalType": "address"
        },
        {
          "name": "seller",
          "type": "address",
          "internalType": "address"
        },
        {
          "name": "token",
          "type": "address",
          "internalType": "address"
        },
        {
          "name": "amount",
          "type": "uint256",
          "internalType": "uint256"
        }
      ],
      "outputs": [
        {
          "name": "",
          "type": "uint256",
          "internalType": "uint256"
        }
      ],
      "stateMutability": "payable"
    },
    {
      "type": "function",
      "name": "escrowCount",
      "inputs": [],
      "outputs": [
        {
          "name": "",
          "type": "uint256",
          "internalType": "uint256"
        }
      ],
      "stateMutability": "view"
    },
    {
      "type": "function",
      "name": "escrows",
      "inputs": [
        {
          "name": "",
          "type": "uint256",
          "internalType": "uint256"
        }
      ],
      "outputs": [
        {
          "name": "buyer",
          "type": "address",
          "internalType": "address"
        },
        {
          "name": "seller",
          "type": "address",
          "internalType": "address"
        },
        {
          "name": "token",
          "type": "address",
          "internalType": "address"
        },
        {
          "name": "amount",
          "type": "uint256",
          "internalType": "uint256"
        },
        {
          "name": "status",
          "type": "uint8",
          "internalType": "enum Escrow.EscrowStatus"
        },
        {
          "name": "proofURI",
          "type": "string",
          "internalType": "string"
        }
      ],
      "stateMutability": "view"
    },
    {
      "type": "function",
      "name": "getEscrowDetails",
      "inputs": [
        {
          "name": "escrowId",
          "type": "uint256",
          "internalType": "uint256"
        }
      ],
      "outputs": [
        {
          "name": "buyer",
          "type": "address",
          "internalType": "address"
        },
        {
          "name": "seller",
          "type": "address",
          "internalType": "address"
        },
        {
          "name": "token",
          "type": "address",
          "internalType": "address"
        },
        {
          "name": "amount",
          "type": "uint256",
          "internalType": "uint256"
        },
        {
          "name": "status",
          "type": "uint8",
          "internalType": "enum Escrow.EscrowStatus"
        },
        {
          "name": "proofURI",
          "type": "string",
          "internalType": "string"
        }
      ],
      "stateMutability": "view"
    },
    {
      "type": "function",
      "name": "getEscrowStatus",
      "inputs": [
        {
          "name": "escrowId",
          "type": "uint256",
          "internalType": "uint256"
        }
      ],
      "outputs": [
        {
          "name": "",
          "type": "uint8",
          "internalType": "enum Escrow.EscrowStatus"
        }
      ],
      "stateMutability": "view"
    },
    {
      "type": "function",
      "name": "getEscrowsByAddress",
      "inputs": [
        {
          "name": "participant",
          "type": "address",
          "internalType": "address"
        }
      ],
      "outputs": [
        {
          "name": "",
          "type": "uint256[]",
          "internalType": "uint256[]"
        }
      ],
      "stateMutability": "view"
    },
    {
      "type": "function",
      "name": "isParticipant",
      "inputs": [
        {
          "name": "escrowId",
          "type": "uint256",
          "internalType": "uint256"
        },
        {
          "name": "account",
          "type": "address",
          "internalType": "address"
        }
      ],
      "outputs": [
        {
          "name": "",
          "type": "bool",
          "internalType": "bool"
        }
      ],
      "stateMutability": "view"
    },
    {
      "type": "function",
      "name": "raiseDispute",
      "inputs": [
        {
          "name": "escrowId",
          "type": "uint256",
          "internalType": "uint256"
        }
      ],
      "outputs": [],
      "stateMutability": "nonpayable"
    },
    {
      "type": "function",
      "name": "recoverERC20",
      "inputs": [
        {
          "name": "tokenAddress",
          "type": "address",
          "internalType": "address"
        },
        {
          "name": "amount",
          "type": "uint256",
          "internalType": "uint256"
        }
      ],
      "outputs": [],
      "stateMutability": "nonpayable"
    },
    {
      "type": "function",
      "name": "recoverETH",
      "inputs": [
        {
          "name": "amount",
          "type": "uint256",
          "internalType": "uint256"
        }
      ],
      "outputs": [],
      "stateMutability": "nonpayable"
    },
    {
      "type": "function",
      "name": "refundBuyer",
      "inputs": [
        {
          "name": "escrowId",
          "type": "uint256",
          "internalType": "uint256"
        }
      ],
      "outputs": [],
      "stateMutability": "nonpayable"
    },
    {
      "type": "function",
      "name": "releaseFunds",
      "inputs": [
        {
          "name": "escrowId",
          "type": "uint256",
          "internalType": "uint256"
        }
      ],
      "outputs": [],
      "stateMutability": "nonpayable"
    },
    {
      "type": "function",
      "name": "submitProofOfShipment",
      "inputs": [
        {
          "name": "escrowId",
          "type": "uint256",
          "internalType": "uint256"
        },
        {
          "name": "proofURI",
          "type": "string",
          "internalType": "string"
        }
      ],
      "outputs": [],
      "stateMutability": "nonpayable"
    },
    {
      "type": "function",
      "name": "viewProof",
      "inputs": [
        {
          "name": "escrowId",
          "type": "uint256",
          "internalType": "uint256"
        }
      ],
      "outputs": [
        {
          "name": "",
          "type": "string",
          "internalType": "string"
        }
      ],
      "stateMutability": "view"
    },
    {
      "type": "event",
      "name": "BuyerRefunded",
      "inputs": [
        {
          "name": "escrowId",
          "type": "uint256",
          "indexed": true,
          "internalType": "uint256"
        }
      ],
      "anonymous": false
    },
    {
      "type": "event",
      "name": "DisputeRaised",
      "inputs": [
        {
          "name": "escrowId",
          "type": "uint256",
          "indexed": true,
          "internalType": "uint256"
        }
      ],
      "anonymous": false
    },
    {
      "type": "event",
      "name": "EscrowCreated",
      "inputs": [
        {
          "name": "escrowId",
          "type": "uint256",
          "indexed": true,
          "internalType": "uint256"
        },
        {
          "name": "buyer",
          "type": "address",
          "indexed": false,
          "internalType": "address"
        },
        {
          "name": "seller",
          "type": "address",
          "indexed": false,
          "internalType": "address"
        },
        {
          "name": "token",
          "type": "address",
          "indexed": false,
          "internalType": "address"
        },
        {
          "name": "amount",
          "type": "uint256",
          "indexed": false,
          "internalType": "uint256"
        }
      ],
      "anonymous": false
    },
    {
      "type": "event",
      "name": "FundsReleased",
      "inputs": [
        {
          "name": "escrowId",
          "type": "uint256",
          "indexed": true,
          "internalType": "uint256"
        }
      ],
      "anonymous": false
    },
    {
      "type": "event",
      "name": "ProofSubmitted",
      "inputs": [
        {
          "name": "escrowId",
          "type": "uint256",
          "indexed": true,
          "internalType": "uint256"
        },
        {
          "name": "seller",
          "type": "address",
          "indexed": true,
          "internalType": "address"
        },
        {
          "name": "proofURI",
          "type": "string",
          "indexed": false,
          "internalType": "string"
        }
      ],
      "anonymous": false
    },
    {
      "type": "event",
      "name": "ReceiptConfirmed",
      "inputs": [
        {
          "name": "escrowId",
          "type": "uint256",
          "indexed": true,
          "internalType": "uint256"
        }
      ],
      "anonymous": false
    },
    {
      "type": "error",
      "name": "FailedCall",
      "inputs": []
    },
    {
      "type": "error",
      "name": "InsufficientBalance",
      "inputs": [
        {
          "name": "balance",
          "type": "uint256",
          "internalType": "uint256"
        },
        {
          "name": "needed",
          "type": "uint256",
          "internalType": "uint256"
        }
      ]
    },
    {
      "type": "error",
      "name": "SafeERC20FailedOperation",
      "inputs": [
        {
          "name": "token",
          "type": "address",
          "internalType": "address"
        }
      ]
    }
  ],
  "bytecode": {
    "object": "0x6080604052348015600e575f80fd5b50604051611d92380380611d92833981016040819052602b9160a7565b6001600160a01b03811660845760405162461bcd60e51b815260206004820152601760248201527f496e76616c696420617262697465722061646472657373000000000000000000604482015260640160405180910390fd5b5f80546001600160a01b0319166001600160a01b039290921691909117905560d2565b5f6020828403121560b6575f80fd5b81516001600160a01b038116811460cb575f80fd5b9392505050565b611cb3806100df5f395ff3fe6080604052600436106100f4575f3560e01c8063758d9b891161008e5780638980f11f116100605780638980f11f146102bb578063a5c1674e146102da578063b996ec2a146102f9578063d333555314610318578063fe25e00a1461033757005b8063758d9b891461022257806376cfa31214610251578063843cba1314610270578063857de3601461028f57005b80634d68282f116100c75780634d68282f146101a15780634f3472eb146101c05780635f324c30146101ec578063675ac67a1461020d57005b8062773722146100fd578063012f52ee1461011c578063345460cd14610156578063392927631461018257005b366100fb57005b005b348015610108575f80fd5b506100fb6101173660046116dd565b61036d565b348015610127575f80fd5b5061013b610136366004611754565b610497565b60405161014d969594939291906117cd565b60405180910390f35b348015610161575f80fd5b50610175610170366004611754565b610568565b60405161014d919061181e565b34801561018d575f80fd5b506100fb61019c366004611754565b6105b4565b3480156101ac575f80fd5b506100fb6101bb366004611754565b6106d4565b3480156101cb575f80fd5b506101df6101da36600461184d565b6107f8565b60405161014d919061186d565b6101ff6101fa3660046118af565b610951565b60405190815260200161014d565b348015610218575f80fd5b506101ff60015481565b34801561022d575f80fd5b5061024161023c3660046118f7565b610bf2565b604051901515815260200161014d565b34801561025c575f80fd5b506100fb61026b36600461184d565b610c61565b34801561027b575f80fd5b506100fb61028a366004611754565b610d4d565b34801561029a575f80fd5b506102ae6102a9366004611754565b610e7a565b60405161014d9190611921565b3480156102c6575f80fd5b506100fb6102d5366004611933565b610f49565b3480156102e5575f80fd5b506100fb6102f4366004611754565b61115e565b348015610304575f80fd5b5061013b610313366004611754565b611272565b348015610323575f80fd5b506100fb610332366004611754565b61138e565b348015610342575f80fd5b505f54610355906001600160a01b031681565b6040516001600160a01b03909116815260200161014d565b5f8381526002602052604090206001015483906001600160a01b031633146103c95760405162461bcd60e51b815260206004820152600a6024820152692737ba1039b2b63632b960b11b60448201526064015b60405180910390fd5b835f811180156103db57506001548111155b6103f75760405162461bcd60e51b81526004016103c09061195b565b5f85815260026020526040812090600482015460ff16600381111561041e5761041e61176b565b1461043b5760405162461bcd60e51b81526004016103c090611986565b6005810161044a858783611a38565b50336001600160a01b0316867fb2217a1ebc8d6435d328a4607aa9709269fe4cb393535a1675721d8431a540188787604051610487929190611af2565b60405180910390a3505050505050565b600260208190525f91825260409091208054600182015492820154600383015460048401546005850180546001600160a01b03958616978616969490951694929360ff909216926104e7906119c2565b80601f0160208091040260200160405190810160405280929190818152602001828054610513906119c2565b801561055e5780601f106105355761010080835404028352916020019161055e565b820191905f5260205f20905b81548152906001019060200180831161054157829003601f168201915b5050505050905086565b5f815f8111801561057b57506001548111155b6105975760405162461bcd60e51b81526004016103c09061195b565b5f8381526002602052604090206004015460ff1691505b50919050565b5f546001600160a01b031633146105dd5760405162461bcd60e51b81526004016103c090611b20565b805f811180156105ef57506001548111155b61060b5760405162461bcd60e51b81526004016103c09061195b565b5f82815260026020819052604090912090600482015460ff1660038111156106355761063561176b565b146106715760405162461bcd60e51b815260206004820152600c60248201526b139bdd08191a5cdc1d5d195960a21b60448201526064016103c0565b60048101805460ff1916600390811790915560028201549082015482546106a5926001600160a01b039081169291166114eb565b60405183907f9496273f5a13d097a94eeecc2fcbcb6a8d26132fa9db01849d964521307dccc5905f90a2505050565b5f546001600160a01b031633146106fd5760405162461bcd60e51b81526004016103c090611b20565b805f8111801561070f57506001548111155b61072b5760405162461bcd60e51b81526004016103c09061195b565b5f82815260026020819052604090912090600482015460ff1660038111156107555761075561176b565b146107915760405162461bcd60e51b815260206004820152600c60248201526b139bdd08191a5cdc1d5d195960a21b60448201526064016103c0565b60048101805460ff1916600190811790915560028201546003830154918301546107c9926001600160a01b03928316929091166114eb565b60405183907f952b264c8e0a06cddb4bbaa6d6af1d565145329fd95bbe72cb2b53942b2dc966905f90a2505050565b60605f60015b600154811161086e575f818152600260205260409020546001600160a01b038581169116148061084957505f818152600260205260409020600101546001600160a01b038581169116145b1561085c578161085881611b59565b9250505b8061086681611b59565b9150506107fe565b505f8167ffffffffffffffff811115610889576108896119ae565b6040519080825280602002602001820160405280156108b2578160200160208202803683370190505b5090505f60015b6001548111610947575f818152600260205260409020546001600160a01b038781169116148061090457505f818152600260205260409020600101546001600160a01b038781169116145b15610935578083838151811061091c5761091c611b71565b60209081029190910101528161093181611b59565b9250505b8061093f81611b59565b9150506108b9565b5090949350505050565b5f6001600160a01b0385161580159061097257506001600160a01b03841615155b6109b05760405162461bcd60e51b815260206004820152600f60248201526e496e76616c6964206164647265737360881b60448201526064016103c0565b5f82116109f05760405162461bcd60e51b815260206004820152600e60248201526d125b9d985b1a5908185b5bdd5b9d60921b60448201526064016103c0565b6001600160a01b038316610a5257813414610a4d5760405162461bcd60e51b815260206004820152601960248201527f496e636f72726563742045544820616d6f756e742073656e740000000000000060448201526064016103c0565b610a67565b610a676001600160a01b038416333085611525565b60018054905f610a7683611b59565b91905055506040518060c00160405280866001600160a01b03168152602001856001600160a01b03168152602001846001600160a01b031681526020018381526020015f6003811115610acb57610acb61176b565b815260408051602080820183525f80835293810191909152600180548452600280835293839020855181546001600160a01b03199081166001600160a01b039283161783559387015182840180548616918316919091179055938601519481018054909316949093169390931790556060830151600380830191909155608084015160048301805493949193909260ff1990911691908490811115610b7257610b7261176b565b021790555060a08201516005820190610b8b9082611b85565b5050600154604080516001600160a01b03898116825288811660208301528716818301526060810186905290519192507fcaf993c592f602a7d225c8556e07d471f93e7c0f2609647024e59018f5a521ac919081900360800190a250600154949350505050565b5f825f81118015610c0557506001548111155b610c215760405162461bcd60e51b81526004016103c09061195b565b5f84815260026020526040902080546001600160a01b0385811691161480610c58575060018101546001600160a01b038581169116145b95945050505050565b5f546001600160a01b03163314610c8a5760405162461bcd60e51b81526004016103c090611b20565b6001600160a01b038116610ce05760405162461bcd60e51b815260206004820152601760248201527f496e76616c69642061726269746572206164647265737300000000000000000060448201526064016103c0565b5f546001600160a01b0390811690821603610d2c5760405162461bcd60e51b815260206004820152600c60248201526b29b0b6b29030b93134ba32b960a11b60448201526064016103c0565b5f80546001600160a01b0319166001600160a01b0392909216919091179055565b5f8181526002602052604090205481906001600160a01b03163314610da05760405162461bcd60e51b81526020600482015260096024820152682737ba10313abcb2b960b91b60448201526064016103c0565b815f81118015610db257506001548111155b610dce5760405162461bcd60e51b81526004016103c09061195b565b5f83815260026020526040812090600482015460ff166003811115610df557610df561176b565b14610e125760405162461bcd60e51b81526004016103c090611986565b60048101805460ff191660019081179091556002820154600383015491830154610e4a926001600160a01b03928316929091166114eb565b60405184907f900a2104c9fe6d9ec7b20dc2b6f3a623600abd02751b4c5dcc71d5aa4764c4ac905f90a250505050565b6060815f81118015610e8e57506001548111155b610eaa5760405162461bcd60e51b81526004016103c09061195b565b5f8381526002602052604090206005018054610ec5906119c2565b80601f0160208091040260200160405190810160405280929190818152602001828054610ef1906119c2565b8015610f3c5780601f10610f1357610100808354040283529160200191610f3c565b820191905f5260205f20905b815481529060010190602001808311610f1f57829003601f168201915b5050505050915050919050565b5f546001600160a01b03163314610f725760405162461bcd60e51b81526004016103c090611b20565b6001600160a01b038216610fb85760405162461bcd60e51b815260206004820152600d60248201526c24b73b30b634b2103a37b5b2b760991b60448201526064016103c0565b6040516370a0823160e01b81523060048201525f906001600160a01b038416906370a0823190602401602060405180830381865afa158015610ffc573d5f803e3d5ffd5b505050506040513d601f19601f820116820180604052508101906110209190611c40565b90505f60015b60015481116110e0575f81815260026020819052604090912001546001600160a01b0386811691161480156110ab57505f8181526002602052604081206004015460ff16600381111561107b5761107b61176b565b14806110ab575060025f8281526002602052604090206004015460ff1660038111156110a9576110a961176b565b145b156110ce575f818152600260205260409020600301546110cb9083611c57565b91505b806110d881611b59565b915050611026565b505f6110ec8284611c6a565b90508084111561113e5760405162461bcd60e51b815260206004820152601b60248201527f43616e6e6f74207265636f766572206c6f636b65642066756e6473000000000060448201526064016103c0565b5f54611157906001600160a01b0387811691168661158c565b5050505050565b805f8111801561117057506001548111155b61118c5760405162461bcd60e51b81526004016103c09061195b565b5f82815260026020526040902080546001600160a01b03163314806111bd575060018101546001600160a01b031633145b6111fd5760405162461bcd60e51b8152602060048201526011602482015270139bdd0818481c185c9d1a58da5c185b9d607a1b60448201526064016103c0565b5f600482015460ff1660038111156112175761121761176b565b146112345760405162461bcd60e51b81526004016103c090611986565b60048101805460ff1916600217905560405183907f04901f83201c8724eadf084436db8aa391820bae6d11f9f78a17edb6f2eef3cf905f90a2505050565b5f805f805f6060865f8111801561128b57506001548111155b6112a75760405162461bcd60e51b81526004016103c09061195b565b5f88815260026020819052604090912080546001820154928201546003830154600484015460058501805495966001600160a01b0395861696908616959094169360ff9092169181906112f9906119c2565b80601f0160208091040260200160405190810160405280929190818152602001828054611325906119c2565b80156113705780601f1061134757610100808354040283529160200191611370565b820191905f5260205f20905b81548152906001019060200180831161135357829003601f168201915b50505050509050975097509750975097509750505091939550919395565b5f546001600160a01b031633146113b75760405162461bcd60e51b81526004016103c090611b20565b475f60015b6001548111611472575f81815260026020819052604090912001546001600160a01b031615801561143d57505f8181526002602052604081206004015460ff16600381111561140d5761140d61176b565b148061143d575060025f8281526002602052604090206004015460ff16600381111561143b5761143b61176b565b145b15611460575f8181526002602052604090206003015461145d9083611c57565b91505b8061146a81611b59565b9150506113bc565b505f61147e8284611c6a565b9050808411156114d05760405162461bcd60e51b815260206004820152601b60248201527f43616e6e6f74207265636f766572206c6f636b65642066756e6473000000000060448201526064016103c0565b5f546114e5906001600160a01b0316856115bd565b50505050565b6001600160a01b0383166115115761150c6001600160a01b038216836115bd565b505050565b61150c6001600160a01b038416828461158c565b6040516001600160a01b0384811660248301528381166044830152606482018390526114e59186918216906323b872dd906084015b604051602081830303815290604052915060e01b6020820180516001600160e01b038381831617835250505050611649565b6040516001600160a01b0383811660248301526044820183905261150c91859182169063a9059cbb9060640161155a565b804710156115e75760405163cf47918160e01b8152476004820152602481018290526044016103c0565b5f80836001600160a01b0316836040515f6040518083038185875af1925050503d805f8114611631576040519150601f19603f3d011682016040523d82523d5f602084013e611636565b606091505b5091509150816114e5576114e5816116b5565b5f8060205f8451602086015f885af180611668576040513d5f823e3d81fd5b50505f513d9150811561167f57806001141561168c565b6001600160a01b0384163b155b156114e557604051635274afe760e01b81526001600160a01b03851660048201526024016103c0565b8051156116c457805160208201fd5b60405163d6bda27560e01b815260040160405180910390fd5b5f805f604084860312156116ef575f80fd5b83359250602084013567ffffffffffffffff81111561170c575f80fd5b8401601f8101861361171c575f80fd5b803567ffffffffffffffff811115611732575f80fd5b866020828401011115611743575f80fd5b939660209190910195509293505050565b5f60208284031215611764575f80fd5b5035919050565b634e487b7160e01b5f52602160045260245ffd5b6004811061179b57634e487b7160e01b5f52602160045260245ffd5b9052565b5f81518084528060208401602086015e5f602082860101526020601f19601f83011685010191505092915050565b6001600160a01b038781168252868116602083015285166040820152606081018490526117fd608082018461177f565b60c060a08201525f61181260c083018461179f565b98975050505050505050565b6020810161182c828461177f565b92915050565b80356001600160a01b0381168114611848575f80fd5b919050565b5f6020828403121561185d575f80fd5b61186682611832565b9392505050565b602080825282518282018190525f918401906040840190835b818110156118a4578351835260209384019390920191600101611886565b509095945050505050565b5f805f80608085870312156118c2575f80fd5b6118cb85611832565b93506118d960208601611832565b92506118e760408601611832565b9396929550929360600135925050565b5f8060408385031215611908575f80fd5b8235915061191860208401611832565b90509250929050565b602081525f611866602083018461179f565b5f8060408385031215611944575f80fd5b61194d83611832565b946020939093013593505050565b602080825260119082015270125b9d985b1a5908195cd8dc9bddc81251607a1b604082015260600190565b6020808252600e908201526d496e76616c69642073746174757360901b604082015260600190565b634e487b7160e01b5f52604160045260245ffd5b600181811c908216806119d657607f821691505b6020821081036105ae57634e487b7160e01b5f52602260045260245ffd5b601f82111561150c57805f5260205f20601f840160051c81016020851015611a195750805b601f840160051c820191505b81811015611157575f8155600101611a25565b67ffffffffffffffff831115611a5057611a506119ae565b611a6483611a5e83546119c2565b836119f4565b5f601f841160018114611a95575f8515611a7e5750838201355b5f19600387901b1c1916600186901b178355611157565b5f83815260208120601f198716915b82811015611ac45786850135825560209485019460019092019101611aa4565b5086821015611ae0575f1960f88860031b161c19848701351681555b505060018560011b0183555050505050565b60208152816020820152818360408301375f818301604090810191909152601f909201601f19160101919050565b6020808252600b908201526a2737ba1030b93134ba32b960a91b604082015260600190565b634e487b7160e01b5f52601160045260245ffd5b5f60018201611b6a57611b6a611b45565b5060010190565b634e487b7160e01b5f52603260045260245ffd5b815167ffffffffffffffff811115611b9f57611b9f6119ae565b611bb381611bad84546119c2565b846119f4565b6020601f821160018114611be5575f8315611bce5750848201515b5f19600385901b1c1916600184901b178455611157565b5f84815260208120601f198516915b82811015611c145787850151825560209485019460019092019101611bf4565b5084821015611c3157868401515f19600387901b60f8161c191681555b50505050600190811b01905550565b5f60208284031215611c50575f80fd5b5051919050565b8082018082111561182c5761182c611b45565b8181038181111561182c5761182c611b4556fea2646970667358221220dffce6afb21baa8e69415ea3f6f70baaf720ca54796ab7f3f5f72fd97a45c9b764736f6c634300081a0033",
    "linkReferences": {}
  },
  "methodIdentifiers": {
    "arbiter()": "fe25e00a",
    "changeArbiter(address)": "76cfa312",
    "confirmReceipt(uint256)": "843cba13",
    "createEscrow(address,address,address,uint256)": "5f324c30",
    "escrowCount()": "675ac67a",
    "escrows(uint256)": "012f52ee",
    "getEscrowDetails(uint256)": "b996ec2a",
    "getEscrowStatus(uint256)": "345460cd",
    "getEscrowsByAddress(address)": "4f3472eb",
    "isParticipant(uint256,address)": "758d9b89",
    "raiseDispute(uint256)": "a5c1674e",
    "recoverERC20(address,uint256)": "8980f11f",
    "recoverETH(uint256)": "d3335553",
    "refundBuyer(uint256)": "39292763",
    "releaseFunds(uint256)": "4d68282f",
    "submitProofOfShipment(uint256,string)": "00773722",
    "viewProof(uint256)": "857de360"
  },
  "id": 0
}